:100000000C9434000C9449000C9449000C94490061
:100010000C9449000C9449000C9449000C9449003C
:100020000C9449000C9449000C9449000C9449002C
:100030000C9449000C9449000C9449000C9449001C
:100040000C9449000C9449000C9449000C9449000C
:100050000C9449000C9449000C9449000C944900FC
:100060000C9449000C94490011241FBECFEFD8E036
:10007000DEBFCDBF11E0A0E0B1E0EAE4F1E002C0F4
:1000800005900D92A430B107D9F70E9459000C9445
:10009000A3000C94000084B5836A84BD85B5836099
:1000A00085BD569A089528985F988091020187BD72
:1000B00008950E944B005498209A579A529A539A46
:1000C000C2E0D1E001E010E04C991CC08091000139
:1000D000909101010197B1F42FEF83ED90E321504E
:1000E00080409040E1F700C00000289A5F98888126
:1000F00087BD4A9BFECF0E945300109201011092CF
:100100000001E2CF4C991CC0809100019091010147
:10011000892BB1F42FEF83ED90E321508040904084
:10012000E1F700C0000028985F9A888187BD4B9B4B
:10013000FECF0E9453001093010100930001C4CF31
:0A0140000E945300C1CFF894FFCFD6
:04014A00010064004C
:00000001FF
