S01A00004E535F303033395F7461736B5F345F626F742E73726563F5
S113000071C0000020C500008DC000008BC000003E
S113001089C0000087C0000085C0000083C00000C4
S113002081C000007FC000007DC000007BC00000D4
S113003079C0000077C0000075C0000073C00000E4
S113004071C000006FC000006DC000006BC00000F4
S113005069C0000067C0000065C0000063C0000004
S113006061C000005FC000005DC000005BC0000014
S113007059C0000057C0000055C0000053C0000024
S113008051C000004FC000004DC000004BC0000034
S113009049C0000047C0000045C0000043C0000044
S11300A041C000003FC000003DC000003BC0000054
S11300B039C0000037C0000035C0000033C0000064
S11300C031C000002FC000002DC000002BC0000074
S11300D029C0000027C0000025C0000023C0000084
S11300E021C0000011241FBECFEFD1E2DEBFCDBF7F
S11300F000E00CBF15E0A0E0B2E0ECEEF1E100E0BE
S11301000BBF02C007900D92A433B107D9F725E0C5
S1130110A4E3B5E001C01D92AC37B207E1F704D601
S11301200C94F4086DCF4F925F926F927F92AF92CE
S1130130BF92CF92DF92EF92FF920F931F93CF93D0
S1130140DF93CDB7DEB729013A019B01AC01241935
S11301503509460957098A899B89AC89BD89BC013F
S1130160CD016A197B098C099D09A8D7A8019701BB
S11301702419350946095709C3D7CA01B9016A0DBB
S11301807B1D8C1D9D1DDF91CF911F910F91FF90C1
S1130190EF90DF90CF90BF90AF907F906F905F9083
S11301A04F900895E0E8F0E08081836A8083E1E87D
S11301B0F0E0808183608083E0E9F0E08081836AFD
S11301C08083E1E9F0E080818360808384B180668C
S11301D084B98DB188618DB90895181619067CF417
S11301E0811524E0920714F08FEF93E09093890037
S11301F08093880010928B0010928A0013C0992378
S11302008CF410928900109288009195819591093F
S1130210811524E0920714F08FEF93E090938B0004
S113022080938A00161617067CF4611584E078071B
S113023014F06FEF73E0709399006093980010923C
S11302409B0010929A00089577238CF410929900E1
S113025010929800719561957109611524E07207F7
S113026014F06FEF73E070939B0060939A0008950D
S1130270AF92BF92CF92DF92EF92FF920F931F93B0
S1130280BC01990F880B990B1F921F9221E02F93A9
S11302902CE22F930F2EF1E4AF2EB12CC12CD12CD4
S11302A0F02D14EBE12EF12C00E010E020E030E022
S11302B0A90139DF7093A9006093A8000F900F90F3
S11302C00F900F901F910F91FF90EF90DF90CF90C0
S11302D0BF90AF900895AF92BF92CF92DF92EF920A
S11302E0FF920F931F93BC01990F880B990B1F92D8
S11302F01F9221E02F932CE22F930F2EF1E4AF2EC7
S1130300B12CC12CD12CF02D14EBE12EF12C00E0FA
S113031010E020E030E0A90106DF7093290160932A
S113032028010F900F900F900F901F910F91FF9045
S1130330EF90DF90CF90BF90AF90089580E48093CA
S11303407C0087E880937A000895ECE7F0E09081E0
S1130350987F8770892B8083EAE7F0E0808180644E
S11303608083808186FDFDCF809178009091790013
S113037008952FEF84E39CE0215080409040E1F702
S113038000C000008AE590E073DF2FEF84E39CE077
S1130390215080409040E1F700C000008AE590E0E1
S11303A09ADF2FEF84E39CE0215080409040E1F7F6
S11303B000C0000080E090E05BDF2FEF84E39CE06E
S11303C0215080409040E1F700C0000008952FEFD5
S11303D084E39CE0215080409040E1F700C000009D
S11303E08AE590E045DF2FEF84E39CE021508040D4
S11303F09040E1F700C0000088E290E06CDF2FEF4E
S113040084E39CE0215080409040E1F700C000006C
S113041080E090E02DDF2FEF84E39CE021508040CA
S11304209040E1F700C00000089581E020916C0540
S113043030916D05243631050CF080E008956FEF9E
S113044073E08FEF93E0C9CE08956FEF73E081E01E
S11304509CEFC3CE089561E07CEF8FEF93E0BDCEB7
S1130460089583E072DF90934B0580934A058536A7
S11304709105E4F4809176059091770520917A05B1
S113048030917B0582179307D4F42091780530913D
S11304907905821793079CF089E0E2E2F5E0A0E495
S11304A0B5E001900D928A95E1F709C088E0EBE28E
S11304B0F5E0A0E4B5E001900D928A95E1F780E4BF
S11304C095E0089584E041DF90937305809372056D
S11304D085E03BDF909371058093700586E035DFFE
S11304E090936F0580936E0587E02FDF90936D05E1
S11304F080936C0508958130910549F4A0DFE2DF13
S11305008091700590917105892BC9F70CC0892BD6
S113051051F4A1DF2FEF81EE94E021508040904010
S1130520E1F700C0000097DFCDDF80917005909166
S113053071058F3F9340B9F708958130910549F4CF
S11305407EDFC0DF8091700590917105892BC9F71A
S11305500CC0892B51F479DF2FEF81EE94E0215008
S113056080409040E1F700C000006FDFABDF809176
S11305707005909171058F3F9340B9F708952091CC
S11305804C0530914D058091120590911305A901F8
S1130590481B590B4130510521F480E090E0ABCF6A
S11305A00895821B930B019719F480E090E0C5CF66
S11305B00895CF93DF9380913C0590913D0500977A
S11305C0A9F4CAE1D0E0D0931105C0931005FFDE71
S11305D080E090E090DFD0934D05C0934C0589E115
S11305E090E0909313058093120518C00197B1F41D
S11305F088E090E09093110580931005E8DE80E098
S113060090E079DF8AE190E090934D0580934C056A
S113061089E190E090931305809312058091380549
S11306209091390540969093110580931005A7DFAA
S113063080913C0590913D05019690933D058093F2
S11306403C05DF91CF910895CF93DF9380913E05D0
S113065090913F05009729F589E090E0909311056A
S11306608093100580914C0590914D05059729F4D0
S113067080E090E040DFABDE04C080E090E05DDF2E
S1130680A6DE80E090E037DF89E090E090934D05AE
S113069080934C0585E090E09093130580931205B8
S11306A016C00197A1F4CBE0D0E0D0931105C0931C
S11306B010058DDE80E090E01EDFD0934D05C093E1
S11306C04C058AE090E09093130580931205809185
S11306D03805909139054096909311058093100543
S11306E04EDF80913E0590913F05019690933F0522
S11306F080933E05DF91CF910895CF93DF9380914E
S11307003A0590913B05009729F586E090E0909397
S113071011058093100580914C0590914D05079724
S113072029F480E090E0E7DE52DE04C080E090E04F
S113073004DF4DDE80E090E0DEDE86E090E0909322
S11307404D0580934C0587E090E0909313058093CA
S1130750120516C00197A1F4C8E0D0E0D0931105AA
S1130760C093100534DE80E090E0C5DED0934D05E3
S1130770C0934C0587E090E0909313058093120595
S11307808091380590913905409690931105809396
S11307901005F5DE80913A0590913B050196909302
S11307A03B0580933A05DF91CF9108954F925F9274
S11307B06F927F928F929F92AF92BF92CF92DF926D
S11307C0EF92FF92CF93DF9300D01F92CDB7DEB7A5
S11307D0409172055091730580916E0590916F055B
S11307E0BA01680F791F2091700530917105620F6D
S11307F0731F61157105D9F09A01220F331F420F3F
S1130800531F9C01220F331F820F931F841B950BD0
S113081064D4072E000C880B990B61D36093680590
S11308207093690580936A0590936B0510C080915D
S1130830540590915505A0915605B09157058093A4
S1130840680590936905A0936A05B0936B05409081
S113085068055090690560906A0570906B05409238
S11308606405509265056092660570926705209153
S113087050053091510540915205509153056091B6
S1130880600570916105809162059091630590D235
S11308906B017C0160936005709361058093620530
S11308A09093630520915405309155054091560568
S11308B050915705C301B2017AD24B015C01609398
S11308C05C0570935D0580935E0590935F052091B0
S11308D01C0530911D0540911E0550911F05C30153
S11308E0B20189D369837A838B839C832091180511
S11308F03091190540911A0550911B05C701B601A5
S11309007AD39B01AC0169817A818B819C8150D21D
S113091069837A838B839C83209114053091150518
S11309204091160550911705C501B40164D39B018C
S1130930AC0169817A818B819C813AD2609358059C
S11309407093590580935A0590935B05C0925005A6
S1130950D0925105E0925205F0925305409254050D
S11309605092550560925605709257050F900F905E
S11309700F900F90DF91CF91FF90EF90DF90CF9089
S1130980BF90AF909F908F907F906F905F904F90AB
S113099008954F925F926F927F928F929F92AF923F
S11309A0BF92CF92DF92EF92FF92609120057091F7
S11309B02105072E000C880B990B91D24B015C0189
S11309C0409058055090590560905A0570905B0509
S11309D0A3019201ECD150D26B017C0170933705D5
S11309E060933605A3019201C501B401E1D144D25B
S11309F07093350560933405C601EFDBFF90EF90EB
S1130A00DF90CF90BF90AF909F908F907F906F902A
S1130A105F904F90089581B1806E81B982B1806EEC
S1130A2082B9089581B18F6081B950980895F8947E
S1130A30E9E6F0E080818260808380818E7F80831C
S1130A40E89A789408951F920F920FB60F9211248A
S1130A508F939F938091740590917505019690935F
S1130A607505809374059F918F910F900FBE0F9021
S1130A701F901895F894DBDF7894089512981398D2
S1130A800895129A139A08951298139A0895109A31
S1130A90119A0895F3DF10927505109274052FEFE3
S1130AA081EE94E0215080409040E1F700C00000C6
S1130AB0809174059091750590937B0580937A05D8
S1130AC00895DFDF10927505109274052FEF81EE03
S1130AD094E0215080409040E1F700C000008091F4
S1130AE07405909175059093770580937605089524
S1130AF0CBDF10927505109274052FEF81EE94E010
S1130B00215080409040E1F700C0000080917405BE
S1130B109091750590937905809378050895BADFCF
S1130B20E7DFCFCF08958BDC2FEF80E792E02150F1
S1130B3080409040E1F700C00000C4DC37DE29DFCC
S1130B408FE19EE40197F1F700C000008ADC62E2C5
S1130B5075E041D3892B19F068DC882371F381DCBB
S1130B6062E275E038D3892B19F4D9DF0CC00895FB
S1130B7066DC9FE721E987E0915020408040E1F75F
S1130B8000C00000089580914E0590914F0540915A
S1130B901205509113056CE1689FF001699FF00DF7
S1130BA01124E050FE4FE40FF51F1082649F900162
S1130BB0659F300D112420503E4FF901E80FF91FB5
S1130BC0108280E090E097DCAEDF80914C0590913C
S1130BD04D0520914E0530914F0530934D052093DE
S1130BE04C0590934F0580934E05089583E0ADDB4B
S1130BF090934B0580934A05CD97B4F420917605E4
S1130C003091770580917A0590917B05821793073F
S1130C1074F481E090E04091780550917905421791
S1130C2053073CF080E008958FEF9FEF089580E034
S1130C3090E0089583E089DB90934B0580934A0507
S1130C40CD97B4F420917A0530917B058091760597
S1130C50909177058217930774F481E090E04091B6
S1130C60780550917905421753073CF080E00895C8
S1130C7080E090E0089580E090E0089583E065DBF3
S1130C8090934B0580934A05CD97B4F42091780551
S1130C9030917905809176059091770582179307B5
S1130CA074F481E090E040917A0550917B054217FD
S1130CB053073CF080E0089580E090E0089580E0E0
S1130CC090E0089580E090E016DC2DDF80E090E075
S1130CD034DC8091100590911105019690931105D3
S1130CE08093100583DF892B19F043DB62CC0895D0
S1130CF0C5DF892B19F03DDBA7CC08959BDF892B39
S1130D0019F037DBFACC089571DF892B39F4B6DF9B
S1130D10892B21F48FDF892B09F4D4CF0895399AD4
S1130D2041980895419A089576DE7CDEA3DEAFDE15
S1130D3039DA04DBF4DF80E190E0909311058093CD
S1130D401005109239051092380550DF0197F9F417
S1130D5095DF0197E1F46EDF0197C9F447DF892B32
S1130D6019F007DB26DC14C089DF892B11F001DBC5
S1130D700FC060DF892B61F0FCDA80913E05909111
S1130D803F05029714F460DC03C0B7DC01C09ADFAE
S1130D908091380590913905019690933905809397
S1130DA03805069794F2BEDF80E090E0089550582D
S1130DB0BB27AA270ED0E5C0D6D030F0DBD020F078
S1130DC031F49F3F11F41EF4CBC00EF4E095E7FB21
S1130DD0C1C0E92FE7D080F3BA176207730784070D
S1130DE0950718F071F49EF5FFC00EF4E0950B2EF4
S1130DF0BA2FA02D0B01B90190010C01CA01A00169
S1130E001124FF27591B99F0593F50F4503E68F1C3
S1130E101A16F040A22F232F342F4427585FF3CF04
S1130E20469537952795A795F0405395C9F77EF4D5
S1130E301F16BA0B620B730B840BBAF09150A1F01E
S1130E40FF0FBB1F661F771F881FC2F70EC0BA0FA4
S1130E50621F731F841F48F4879577956795B7952C
S1130E60F7959E3F08F0B3CF9395880F08F0992724
S1130E70EE0F97958795089504D06894B111B5C085
S1130E80089598D088F09F5790F0B92F9927B751BB
S1130E90A0F0D1F0660F771F881F991F1AF0BA953A
S1130EA0C9F712C0B13081F09FD0B1E008959CC061
S1130EB0672F782F8827B85F39F0B93FCCF3869530
S1130EC077956795B395D9F73EF49095809570958D
S1130ED061957F4F8F4F9F4F0895E89409C097FB0A
S1130EE03EF490958095709561957F4F8F4F9F4FFD
S1130EF09923A9F0F92F96E9BB279395F695879541
S1130F0077956795B795F111F8CFFAF4BB0F11F403
S1130F1060FF1BC06F5F7F4F8F4F9F4F16C08823AA
S1130F2011F096E911C0772321F09EE8872F762FE0
S1130F3005C0662371F096E8862F70E060E02AF021
S1130F409A95660F771F881FDAF7880F969587950D
S1130F5097F9089597F99F6780E870E060E0089535
S1130F609FEF80EC089500240A94161617061806BD
S1130F700906089500240A94121613061406050699
S1130F800895092E0394000C11F4882352F0BB0F2A
S1130F9040F4BF2B11F460FF04C06F5F7F4F8F4F8D
S1130FA09F4F089557FD9058440F551F59F05F3FC8
S1130FB071F04795880F97FB991F61F09F3F79F077
S1130FC087950895121613061406551FF2CF4695F9
S1130FD0F1DF08C0161617061806991FF1CF86957B
S1130FE07105610508940895E894BB27662777275F
S1130FF0CB0197F908950BD0C4CFB5DF28F0BADF41
S113100018F0952309F0A6CFABCF1124EECFCADF99
S1131010A0F3959FD1F3950F50E0551F629FF00107
S1131020729FBB27F00DB11D639FAA27F00DB11D60
S1131030AA1F649F6627B00DA11D661F829F2227E9
S1131040B00DA11D621F739FB00DA11D621F839F70
S1131050A00D611D221F749F3327A00D611D231F46
S1131060849F600D211D822F762F6A2F11249F5794
S113107050408AF0E1F088234AF0EE0FFF1FBB1FB7
S1131080661F771F881F91505040A9F79E3F510556
S113109070F060CFAACF5F3FECF3983EDCF3869507
S11310A077956795B795F795E7959F5FC1F7FE2B01
S11310B0880F911D9695879597F90895DB018F9375
S11310C09F933AD0BF91AF91A29F800D911DA39F92
S11310D0900DB29F900D1124089597FB072E16F4DE
S11310E0009406D077FD08D031D007FC05D03EF43B
S11310F0909581959F4F0895709561957F4F0895C0
S1131100052E97FB16F400940FD057FD05D032D06E
S113111007FC02D046F408C05095409530952195BF
S11311203F4F4F4F5F4F089590958095709561950F
S11311307F4F8F4F9F4F08953FD0A59F900DB49F31
S1131140900DA49F800D911D11240895AA1BBB1B13
S113115051E107C0AA1FBB1FA617B70710F0A61BB3
S1131160B70B881F991F5A95A9F780959095BC01D4
S1131170CD010895A1E21A2EAA1BBB1BFD010DC0CF
S1131180AA1FBB1FEE1FFF1FA217B307E407F50733
S113119020F0A21BB30BE40BF50B661F771F881F0F
S11311A0991F1A9469F760957095809590959B01A5
S11311B0AC01BD01CF010895A29FB001B39FC0014E
S11311C0A39F700D811D1124911DB29F700D811D6F
S11311D01124911D0895FB01DC018D91019080196A
S10F11E00110D9F3990B0895F894FFCF87
S11311EC00010000000000000000000000000000EE
S11311FC00000000000000000000000001000100DD
S113120C01000000000000000000000000000001CC
S113121C00000000000000000001000100000000BC
S113122C00000000000100000000000000000000AD
S113123C000000000000010000010100000000009B
S113124C000000000000000000000000000000008E
S113125C000100000001000000000000000000017B
S113126C000000000000000000000000000000016D
S113127C010000000001000000000000000000005C
S113128C000000000000000000000001000000014C
S113129C000000000000000000000000000000003E
S11312AC000000000000000000000100010000002C
S11312BC010000000000000000000000000000001D
S11312CC000000000000000100000000000000000D
S11312DC00000000000000000000000000000000FE
S11312EC00010000000001000000000000000000EC
S11312FC00000000000000000000000000000000DE
S113130C00010001000001000000000000000000CA
S113131C00000000000000000000000000000100BC
S113132C00000000000000000000000000000000AD
S113133C000000000000000100000000000100009B
S113134C010000000000000000000000000001008B
S113135C000000000000000001000000000100007B
S113136C000000000000000000000000000000006D
S113137C000001000000000100000000000001005A
S113138C000000000000000001000000000000004C
S113139C000001000000000000010000000000003B
S11313AC000000000000000000000000010000002C
S11313BC000100000000000000000000000000001C
S11313CC000000000000000100000100010000000A
S11313DC00000000000000000000000000000000FD
S11313EC00000000000000000001000100000000EB
S11313FC00000000000100000000000000000000DC
S113140C00000000000001000100000000000000CA
S113141C00000000000000000000000000000000BC
S113142C00000001000100000000000000000000AA
S113143C000000000000000000000001000000009B
S113144C010001000000000000000000000000008A
S113145C000000000000010000000000000100007A
S113146C000000000000000000000000000000006C
S113147C000000000000000000000000000000005C
S113148C000000000000000000000000000000004C
S113149C000000000000000000000000000000003C
S11314AC000000000000000000000000000000002C
S11314BC000000000000000000000000000000001C
S11314CC000000000000000000000000000000000C
S11314DC00000000000000000000000000000000FC
S11314EC00000000000000000000000000000000EC
S11314FC10000100000000400000A0410000484220
S113150CC8006F62737461636C65006E6F74686994
S107151C6E670000F2
S9030000FC
