:100000000C9472000C94A0000C9486000C94860052
:100010000C9486000C9486000C9486000C94860048
:100020000C9486000C9486000C9486000C94860038
:100030000C9486000C9486000C9486000C94860028
:100040000C9486000C9486000C9486000C94860018
:100050000C9486000C9486000C9486000C94860008
:100060000C9486000C9486000C9486000C948600F8
:100070000C9486000C9486000C9486000C948600E8
:100080000C9486000C9486000C9486000C948600D8
:100090000C9486000C9486000C9486000C948600C8
:1000A0000C9486000C9486000C9486000C948600B8
:1000B0000C9486000C9486000C9486000C948600A8
:1000C0000C9486000C9486000C9486000C94860098
:1000D0000C9486000C9486000C9486000C94860088
:1000E0000C94860011241FBECFEFD1E2DEBFCDBF3E
:1000F00000E00CBF22E0A0E0B2E001C01D92A830F9
:10010000B207E1F70E9417010C9461010C94000002
:1001100081B1806E81B982B1806E82B9089581B15A
:100120008F6081B950980895F894E9E6F0E08081F5
:100130008260808380818E7F8083E89A789408959E
:100140001F920F920FB60F9211248F939F9380915D
:10015000060290910702019690930702809306028F
:100160009F918F910F900FBE0F901F901895F8944C
:100170000E94940078940895129813980895129A02
:10018000139A08951298139A0895109A119A08953F
:100190000E94BC0010920702109206022FEF81EE1F
:1001A00094E0215080409040E1F700C00000809131
:1001B000060290910702909305028093040208952D
:1001C0000E94BF0010920702109206022FEF81EEEC
:1001D00094E0215080409040E1F700C00000809101
:1001E0000602909107029093030280930202089501
:1001F0000E94C20010920702109206022FEF81EEB9
:1002000094E0215080409040E1F700C000008091D0
:1002100006029091070290930102809300020895D4
:100220000E94C8000E94F8000E94E00008950E9409
:1002300088000E948F000E94B7000E94C5000E94A3
:10024000100120910402309105024091000250916A
:1002500001024217530748F4809102029091030271
:100260008217930750F4C90108C08091020290914F
:1002700003028417950708F4CA01883E63E09607D5
:1002800020F482B1806E82B9DACF8217930729F405
:1002900082B1806682B91798D2CF20910202309144
:1002A00003028217930729F482B1806A82B91698F3
:1002B000C6CF8417950719F682B1806C82B915985C
:0602C000BECFF894FFCF51
:00000001FF
